:100000000C94CC0B0C94FC0B0C94FC0B0C94FC0B84
:100010000C94FC0B0C94FC0B0C94FC0B0C94FC0B44
:100020000C94FC0B0C94FC0B0C94FC0B0C94FC0B34
:100030000C94FC0B0C94FC0B0C94FC0B0C94FC0B24
:100040000C94FC0B0C94FC0B0C94FC0B0C94FC0B14
:100050000C94FC0B0C94FC0B0C94FC0B0C94700D8E
:100060000C94FC0B0C942E0D0C94050D0C94FC0BB5
:100070000C94FC0B0C94FC0B0C94FC0B0C94FC0BE4
:100080000C94FC0B0C94FC0B0C94FC0B0C94FC0BD4
:100090000C94FC0B0C94FC0B0C94FC0B0C94FC0BC4
:1000A0000C94FC0B0C94FC0B0C94FC0B0C94FC0BB4
:1000B0000C94FC0B0C94FC0B0C94FC0B0C94FC0BA4
:1000C0000C94FC0B0C94FC0B0C94FC0B0C94FC0B94
:1000D0000C94FC0B0C94FC0B0C94FC0B0C94FC0B84
:1000E0000C94FC0B00002200250028002B002E00A1
:1000F0003100340002010000050108010B0100007D
:100100002100240027002A002D00300033000101C7
:100110000000040107010A01050505050705080897
:100120000808020202020A0A080804040404010181
:100130000101010101010303030303030303040796
:1001400007070C0C0C0C0C0C0C0C0202020206062D
:100150000606060606060B0B0B0B0B0B0B0B010220
:1001600010202008081020401020408002010201C9
:100170000804020101020408102040808040201081
:1001800008040201800402018040201008040201DA
:100190000804020101020408102040800102040842
:1001A0001020408000101000FE0A06A7089500FFEE
:1001B000FE0EFE0BFE1010201000FEAAAA00018009
:1001C00000000180004A51EA505A51C99E00018046
:1001D0000000018000000180005555101020100023
:1001E000FEAAAA00018000000180003993C25232A9
:1001F0005F8A5271938000000180000001800055E9
:10020000551010201000FEAAAA00018000000180F5
:10021000003BA5C12431198924712580000001808B
:10022000000001800055551010201000FEAAAA0001
:10023000018000000180007BA5C1247919C12479C7
:10024000258000000180000001800055551010201D
:100250001000FEAAAA000180000001800079BFC240
:10026000487A49C2487989800000018000000180F5
:100270000055551010201000FEAAAA0001800000B1
:100280000180007A4DC2527B53C2D67A4F80000063
:100290000180000001800055551010201000FEAABA
:1002A000AA000180000001800031A5CA287A31CA65
:1002B0002849A580000001800000018000555510EC
:1002C00010201000FEAAAA00018000000180007327
:1002D000D1CA1073D1CA1073DF8000000180000002
:1002E00001800055551010201000FEAAAA000180C0
:1002F00000000180001E3991401E3191081E71805E
:1003000000000180000001800055551010201000F1
:10031000FEAAAA000180000001800022F9A2203E6E
:1003200021A22022218000000180000001800055D0
:10033000551010201000FEAAAA00018000000180C4
:100340000020F9A08020F9A0803E8180000001807B
:10035000000001800055551010201000FEAAAA00D0
:100360000180000001800022F9A2202221942008AF
:1003700021800000018000000180005555101020F0
:100380001000FEAAAA00018000000180003EF9A032
:10039000803EF9A080208180000001800000018063
:1003A0000055551010201000FEAAAA000180000080
:1003B0000180001EF1A08820F1A0901E898000001D
:1003C0000180000001800055551010201000FEAA89
:1003D000AA00018000000180001E71A0881C898293
:1003E000883C71800000018000000180005555109C
:1003F00010201000FEAAAA00018000000180001E4B
:10040000F9A0201C2182203CF9800000018000001E
:1004100001800055551010201000FEAAAA0001808E
:100420000000018000391DA510251DA51039DD80B3
:1004300000000180000001800055551010201000C0
:10044000FEAAAA00018000000180007189CA184A32
:1004500009CA08719D8000000180000001800055DC
:10046000551010201000FEAAAA0001800000018093
:10047000007199CA044A09CA10719D800000018068
:10048000000001800055551010201000FEAAAA009F
:10049000018000000180007199CA044A19CA0471E0
:1004A0009980000001800000018000555510102047
:1004B0001000FEAAAA00018000000180007185CA18
:1004C0000C4A15CA1C718580000001800000018063
:1004D0000055551010201000FEAAAA00018000004F
:1004E0000180004993EA546A59DBD44A53800000E2
:1004F0000180000001800055551010201000FEAA58
:10050000AA00018000000180003453C29A3117898B
:100510001271138000000180000001800055551009
:1005200010201000FEAAAA00018000000180007BBC
:10053000B9C1247939C124793980000001800000D3
:1005400001800055551010201000FEAAAA0001805D
:1005500000000180003325C4B447ADC4A434A58095
:10056000000001800000018000555510102010008F
:10057000FEAAAA00018000000180003E89A0D83EAA
:10058000A9A0883E898000000180000001800055FC
:10059000551010201000FEAAAA0001800000018062
:1005A000003A5DC252325D8A52719D800000018026
:1005B000000001800055551010201000FEAAAA006E
:1005C0000180000001800079CFC2107991C0507B7A
:1005D0008F80000001800000018000555510102020
:1005E0001000FEAAAA00018000000180001E719088
:1005F000801E61901010E1800000018000000180E9
:100600000055551010201000FEAAAA00018000001D
:100610000180000E719080166192100EE180000042
:100620000180000001800055551010201000FEAA26
:10063000AA00018000000180001C7192801C61945E
:100640001012E1800000018000000180005555106B
:1006500010201000FEAAAA000180000001800012F4
:10066000719280126192100CE18000000180000004
:10067000018000555500000008000E010A0A080418
:1006800000808080808080800080800504040802D3
:100690000888888888060A0A080100242424FC485F
:1006A00048FC909090070A0A080100107C92907014
:1006B0001C12927C10070A0A0801006294946810C8
:1006C000102C52528C070A0A080100384444283082
:1006D000528A848C7201040408040880808080039C
:1006E0000C0C0803FF2040408080808080804040C8
:1006F00020030C0C0802FF804040202020202020F6
:1007000040408007070708010110925438549210A6
:10071000070707080101101010FE10101002040452
:100720000803FEC0404080040101080204F00202F8
:1007300002080300C0C0060A0A08010004040810E9
:10074000102020408080060A0A0801003048848476
:10075000848484844830050A0A0802002060A020AE
:100760002020202020F8060A0A080100788484044A
:100770001820408080FC060A0A080100788484045E
:10078000380404848478060A0A08010008182848F6
:100790008888FC080808060A0A080100FC80808096
:1007A000F80404048478060A0A08010038408080AE
:1007B000F88484848478060A0A080100FC0404088A
:1007C000080810101010060A0A08010078848484B2
:1007D000788484848478060A0A08010078848484F2
:1007E0007C0404040870020707080301C0C000006D
:1007F00000C0C00209090803FFC0C0000000C040DB
:10080000408005090908020008102040804020109F
:1008100008060505080102FC000000FC050909089E
:100820000100804020100810204080060A0A0801BC
:100830000078848404081010001010060A0A0801C9
:1008400000384494ACA4A4A49C403C060A0A0801C5
:10085000003048488484FC84848484060A0A0801A1
:1008600000F8848484F884848484F8060A0A0801E1
:100870000078848480808080848478060A0A080155
:1008800000F08884848484848488F0060A0A08013D
:1008900000FC808080F880808080FC060A0A0801C5
:1008A00000FC808080F88080808080060A0A080131
:1008B0000078848480809C84848C74060A0A0801F1
:1008C0000084848484FC8484848484050A0A080265
:1008D00000F82020202020202020F8070A0A080104
:1008E000003E080808080808888870060A0A0801F7
:1008F00000848890A0C0C0A0908884060A0A0801DD
:1009000000808080808080808080FC060A0A080148
:10091000008484CCCCB4B484848484060A0A08019C
:100920000084C4C4A4A494948C8C84060A0A08018C
:100930000078848484848484848478060A0A080184
:1009400000F8848484F88080808080070B0B080185
:10095000FF78848484848484B4CC7806060A0A08E8
:100960000100F8848484F89088888484060A0A0840
:10097000010078848480601804848478070A0A0857
:100980000100FE101010101010101010060A0A08B6
:10099000010084848484848484848478070A0A0817
:1009A000010082828244444428281010060A0A0862
:1009B000010084848484B4B4CCCC8484060A0A08FC
:1009C000010084844848303048488484070A0A0873
:1009D000010082824444281010101010060A0A08F0
:1009E0000100FC0404081020408080FC030C0C086B
:1009F00004FFE080808080808080808080E0060A24
:100A00000A08010080804020201010080404030C14
:100A10000C0801FFE020202020202020202020E0C2
:100A20000603030801093048840701010801FFFE9D
:100A300003030308020A8040200608080801007822
:100A400084047C84848C74060B0B080100808080F5
:100A5000B8C484848484C4B8060808080100788473
:100A6000808080808478060B0B08010004040474E5
:100A70008C848484848C740608080801007884843B
:100A8000FC80808478050B0B08010018202020F8DA
:100A9000202020202020060B0B0801FE04748888EB
:100AA00088704078848478060B0B08010080808071
:100AB000B8C4848484848484050B0B08020020203D
:100AC0000060202020202020F8050D0D0801FE08E0
:100AD000080018080808080808089060060B0B08AA
:100AE00001008080808890A0C0A0908884050B0BB6
:100AF00008020060202020202020202020F8070865
:100B000008080100EC9292929292929206080808CC
:100B10000100B8C484848484848406080808010021
:100B20007884848484848478060A0A0801FEB8C420
:100B300084848484C4B88080060A0A0801FE748C08
:100B4000848484848C740404060808080100B8C4F2
:100B50008480808080800608080801007884806096
:100B600018048478050A0A080100202020F82020B3
:100B700020202018060808080100848484848484C6
:100B80008C74060808080100848484484848303082
:100B9000070808080100829292929292926C0608CD
:100BA000080801008484483030488484060A0A0812
:100BB00001FE84848484844C340404780608080884
:100BC0000100FC040810204080FC030C0C0803FF0B
:100BD000608080404080804040808060010E0E0830
:100BE00004FE808080808080808080808080808003
:100BF000030C0C0802FFC020204040202040402071
:100C000020C007030308010862928C101020100016
:100C1000FEAAAA000180000001800073D1CA104B17
:100C2000D1CA1073DF8000000180000001800055F0
:100C3000551010201000FEAAAA00018000000180BB
:100C400000719DCA5273D3C252425D800000018080
:100C5000000001800055551010201000FEAAAA00C7
:100C600001800000018000499DCA527A5DCA504946
:100C70009180000001800000018000555510102077
:100C80001000FEAAAA00018000000180007393CA30
:100C900052739FCA1272138000000180000001800D
:100CA0000055551010201000FEAAAA000180000077
:100CB0000180004B93EA525B9FCA524B9380000025
:100CC0000180000001800055551010201000FEAA80
:100CD000AA000180000001800074B9A6A425A5A483
:100CE000A474B980000001800000018000555510F7
:100CF00010201000FEAAAA00018000000180004B15
:100D0000D1EA105BD1CA104BDF80000001800000E7
:100D100001800055551010201000FEAAAA00018085
:100D2000000001800039CDC212319F885273938038
:100D300000000180000001800055551010201000B7
:100D4000FEAAAA000180000001800079CDC21279BC
:100D50009FC0527B938000000180000001800055FD
:100D6000551010201000FEAAAA000180000001808A
:100D7000004B9DC9207919C90449398000000180C0
:100D8000000001800055551010201000FEAAAA0096
:100D90000180000001800025DDA4843C85A484241A
:100DA000998000000180000001800055551010203E
:100DB0001000FEAAAA000180000001800045CDC4F9
:100DC000904489A88410998000000180000001806F
:100DD0000055551010201000FEAAAA000180000046
:100DE000018000721DCA127213C21243DD8000001E
:100DF0000180000001800055551010201000FEAA4F
:100E0000AA00018000000180007213CA127213C28E
:100E10001243CD8000000180000001800055551074
:100E200010201000FEAAAA00018000000180000E20
:100E30002189200E218A20092180000001800000E4
:100E400001800055551010201000FEAAAA00018054
:100E5000000001800039DDC202318D8850739F800F
:100E60000000018000000180005555101020100086
:100E7000FEAAAA000180000001800039DDC2023113
:100E80008D8842739D800000018000000180005524
:100E9000551010201000FEAAAA0001800000018059
:100EA0000071CFCA104A0DCA0271DD8000000180B6
:100EB000000001800055551010201000FEAAAA0065
:100EC000018000000180007245CA4C7245C2444155
:100ED0008F80000001800000018000555510102017
:100EE0001000FEAAAA0001800000018000725DCA05
:100EF00042724DC250419F8000000180000001807D
:100F00000055551010201000FEAAAA000180000014
:100F10000180003B9DC12031198904713980000096
:100F20000180000001800055551010201000FEAA1D
:100F3000AA000180000001800039D3C212421FC202
:100F40001239D38000000180000001800055551047
:100F500010201000FEAAAA000180000001800022DB
:100F600089B6882AA9A2D8228980000001800000C1
:100F700001800055551010201000FEAAAA00018023
:100F800000000180003B8DC252339F8A1272138091
:100F90000000018000000180005555101020100055
:100FA000FEAAAA00018000000180007B8DC2527B56
:100FB0009FC2127A1380000001800000018000555A
:100FC000551010201000FEAAAA0001800000018028
:100FD00000398FC250324D8A42719D8000000180DD
:100FE000000001800055551010201000FEAAAA0034
:100FF00001800000018000339BC42225A394A263DA
:101000009B800000018000000180005555101020D9
:101010001000FEAAAA000180000001800039DDC294
:101020000832098A0871DD8000000180000001801B
:101030000055551010201000FEAAAA0001800000E3
:1010400001800039DDC2084189C0483B9D80000015
:101050000180000001800055551010201000FEAAEC
:10106000AA00018000000180000EF990200C21826E
:10107000201C2180000001800000018000555510D7
:1010800010201000FEAAAA0001800000018000319B
:10109000CFCA104991C850338F80000001800000F2
:1010A00001800055551010201000FEAAAA000180F2
:1010B00000000180001C8992D81CA99088108980AA
:1010C0000000018000000180005555101020100024
:1010D000FEAAAA0001800000018000338FCA507B65
:1010E00091CA104A0F800000018000000180005565
:1010F0005500000008000E010A0A08040080800064
:1011000080808080808080070A0A08010010107C9F
:10111000929090927C1010070A0A0801001C20206F
:1011200020F82020207CC2060808080101844878A5
:101130004848784884070A0A08010082442810FEBB
:1011400010FE101010010A0A080400808080800040
:101150000080808080060A0A0801007884807884F4
:10116000847804847804020208020C9090080A0A29
:101170000800003C4299A5A1A1A599423C0507079A
:10118000080205700878887800F806090908010047
:10119000242448489048482424060404080100FCFC
:1011A0000404041010201000FEAAAA000180003AD6
:1011B00063C25433C98A4872498000000180000329
:1011C000C18000000180005555080A0A0800003C53
:1011D00042B9A5A5B9A9A5423C06010108010BFC2D
:1011E00003040408020A40A0A040070909080101FD
:1011F000101010FE10101000FE0507070802057001
:101200008808708080F80507070802057088087054
:1012100008887003030308030A204080080A0A08AC
:1012200000FE42424242424266594080060C0C088F
:1012300001FF7CF4F4F4F47414141414141C02026A
:1012400002080304C0C00302020802FE20C0030714
:10125000070802052060A0202020200507070802BB
:1012600005708888887000F80609090801009090C8
:1012700048482448489090060A0A08010044C44897
:101280005050242C549C84060A0A08010044C44887
:101290005050283444889C060A0A080100C4244897
:1012A00030D0242C549C84060A0A08010010100037
:1012B00010106084848478060E0E08010060180007
:1012C000003048488484FC84848484060E0E08011F
:1012D00000186000003048488484FC8484848406BC
:1012E0000E0E080100304800003048488484FC8419
:1012F000848484060E0E080100649800003048487B
:101300008484FC84848484060E0E0801004848000E
:10131000003048488484FC84848484060E0E0801CE
:1013200000304830003048488484FC84848484073A
:101330000A0A0801003E509090FE909090909E0600
:101340000C0C0801FE78848480808080848478106E
:1013500060060E0E08010060180000FC808080F816
:1013600080808080FC060E0E08010018600000FCE2
:10137000808080F880808080FC060E0E080100309E
:10138000480000FC808080F880808080FC060E0E83
:1013900008010048480000FC808080F88080808040
:1013A000FC050E0E08020060180000F82020202026
:1013B00020202020F8050E0E08020030C00000F8A2
:1013C0002020202020202020F8050E0E080200609A
:1013D000900000F82020202020202020F8050E0E6C
:1013E00008020090900000F82020202020202020DB
:1013F000F8070A0A08000078444242F24242424496
:1014000078060E0E0801006498000084C4C4A4A4E9
:1014100094948C8C84060E0E0801006018000078ED
:10142000848484848484848478060E0E08010018E1
:1014300060000078848484848484848478060E0E1A
:101440000801003048000078848484848484848483
:1014500078060E0E08010064980000788484848465
:101460008484848478060E0E0801004848000078C1
:101470008484848484848484780605050801028435
:1014800048304884060C0C0801FF0474888C94943E
:10149000A4A4C444B880060E0E0801006018000021
:1014A00084848484848484848478060E0E080100F5
:1014B0001860000084848484848484848478060E84
:1014C0000E0801003048000084848484848484846D
:1014D0008478060E0E080100484800008484848445
:1014E000848484848478070E0E080100186000004C
:1014F00082824444281010101010060B0B080100C3
:101500008080F088848488F0808080060A0A080140
:101510000070888890B0888484A498060C0C080118
:1015200000601800007884047C84848C74060C0CA1
:10153000080100186000007884047C84848C7406A0
:101540000C0C080100304800007884047C84848CF2
:1015500074060C0C080100649800007884047C84F4
:10156000848C74060C0C0801004848000078840440
:101570007C84848C74060D0D080100304830000016
:101580007884047C84848C740708080801007C92A9
:10159000127E9090927C060A0A0801FE7884808070
:1015A000808084781060060C0C0801006018000030
:1015B000788484FC80808478060C0C080100186014
:1015C0000000788484FC80808478060C0C0801007C
:1015D00030480000788484FC80808478060C0C08F5
:1015E000010048480000788484FC80808478050CE1
:1015F0000C080200C030000060202020202020F8CD
:10160000050C0C08020030C00000602020202020C3
:1016100020F8050C0C0802006090000060202020DB
:10162000202020F8050C0C0802009090000060209B
:101630002020202020F8060C0C0801006418284403
:10164000047C848484848478060C0C0801006498EB
:101650000000B8C4848484848484060C0C080100CF
:10166000601800007884848484848478060C0C08D4
:101670000100186000007884848484848478060CD7
:101680000C080100304800007884848484848478C5
:10169000060C0C080100649800007884848484841B
:1016A0008478060C0C080100484800007884848483
:1016B00084848478060707080101300000FC0000DC
:1016C00030060A0A0801FF04788C9494A4A4C47814
:1016D00080060C0C08010060180000848484848457
:1016E000848C74060C0C080100186000008484844B
:1016F0008484848C74060C0C08010030480000843B
:1017000084848484848C74060C0C0801004848008E
:10171000008484848484848C74060E0E0801FE1870
:1017200060000084848484844C34040478050C0CA8
:101730000802FE8080F088888890A0C080808006A3
:101740000E0E0801FE4848000084848484844C34D2
:10175000040478FFE0FFD1AFFF32FFD0FFFEFFE0CF
:10176000FFD1AEFFD0FFFEFFE0FFD11002FFFEFF72
:10177000D0FFE0FFC1FFD1AED580A83FD300408DA0
:10178000142002A1C8DA1281CFD9F1DB402EA4A621
:10179000AFFFD0FFFE008D1611241FBECFEFD1E2A8
:1017A000DEBFCDBF00E00CBF24E0ACE6B2E001C07C
:1017B0001D92A332B207E1F712E0A0E0B2E0E0EF41
:1017C000FEE200E00BBF02C007900D92AC36B107FD
:1017D000D9F71BE0CCECDBE000E006C02197010963
:1017E000802FFE010E946A17CB3CD10780E00807DA
:1017F000A9F7B0D70C9476170C940000FC01538D18
:10180000448D252F30E0842F90E0821B930B5417DA
:1018100010F0CF96089501970895FC01918D828D67
:10182000981761F0828DDF01A80FB11D5D968C9134
:10183000928D9F5F9F73928F90E008958FEF9FEF3F
:101840000895FC01918D828D981731F0828DE80FFB
:10185000F11D858D90E008958FEF9FEF0895FC01B5
:10186000918D228D892F90E0805C9F4F821B910982
:101870008F739927089580E892E0F1DF21E0892BAA
:1018800009F420E0822F0895FC01848DDF01A80F68
:10189000B11DA35ABF4F2C91848D90E001968F7398
:1018A0009927848FA689B7892C93A089B1898C91B7
:1018B00080648C93938D848D981306C00288F3897D
:1018C000E02D80818F7D80830895EF92FF920F93AA
:1018D0001F93CF93DF93EC0181E0888F9B8D8C8DDC
:1018E000981305C0E889F989808185FD23C0F62E0B
:1018F0000B8D10E00F5F1F4F0F731127E02E8C8DA3
:10190000E8120BC00FB607FCFACFE889F98980818D
:1019100085FFF5CFCE01B8DFF2CF8B8DFE01E80F4A
:10192000F11DE35AFF4FF0820B8FEA89FB8980811A
:10193000806207C0EE89FF896083E889F989808128
:101940008064808381E090E0DF91CF911F910F91BF
:10195000FF90EF900895CF93DF93EC01888D88235B
:10196000C1F0EA89FB89808185FD05C0A889B98914
:101970008C9186FD0EC00FB607FCF5CF808185FFE8
:10198000F2CFA889B9898C9185FFEDCFCE017CDF9C
:10199000E8CFDF91CF91089580E090E0892B19F096
:1019A0006ADF811125C080E090E0892B41F080E062
:1019B00090E0892B21F00E94000081111CC080E082
:1019C00090E0892B41F080E090E0892B21F00E948B
:1019D0000000811113C080E090E0892BA1F080E02D
:1019E00090E0892B81F00E94000081110AC00895C7
:1019F0000E940000D8CF0E940000E1CF0E940000AA
:101A0000EACF0C940000089508951F920F920FB62C
:101A10000F9211240BB60F922F933F934F935F9326
:101A20006F937F938F939F93AF93BF93EF93FF93A6
:101A300080E892E029DFFF91EF91BF91AF919F91F4
:101A40008F917F916F915F914F913F912F910F9067
:101A50000BBE0F900FBE0F901F9018951F920F9204
:101A60000FB60F9211240BB60F922F938F939F9363
:101A7000EF93FF93E0919002F09191028081E091C9
:101A80009602F091970282FD12C090818091990296
:101A90008F5F8F7320919A02821751F0E091990223
:101AA000F0E0E058FD4F958F8093990201C080814E
:101AB000FF91EF919F918F912F910F900BBE0F90FF
:101AC0000FBE0F901F9018952FB7F8946091710278
:101AD0007091720280917302909174022FBF0895E9
:101AE0001F920F920FB60F9211242F933F938F9353
:101AF0009F93AF93BF938091710290917202A091D6
:101B00007302B09174023091700223E0230F2D37DD
:101B100020F40196A11DB11D05C026E8230F0296F1
:101B2000A11DB11D209370028093710290937202E7
:101B3000A0937302B093740280916C0290916D0235
:101B4000A0916E02B0916F020196A11DB11D80930C
:101B50006C0290936D02A0936E02B0936F02BF91DE
:101B6000AF919F918F913F912F910F900FBE0F904A
:101B70001F901895FB014181DC0112962C91129760
:101B8000421760F013962C911397241738F0608158
:101B900015962C91621710F424812AC20895FC0135
:101BA00080819281980F92832181921760F49481B1
:101BB0009F5F94839381890F821710F08FEF820FBC
:101BC000838381E0089580E00895FC011282808182
:101BD000815083831482089580E008950B96FC0160
:101BE000849108950A96FC0184910895FC018491E2
:101BF0000895FCDF882321F0823011F083E00895FE
:101C000086E00895FC01E60FF11D849190E0982F85
:101C100088273196E4918E0F911D089568E0F2CFE8
:101C200066E0F0CF2EE93FE0009729F0F901319707
:101C3000F1F70197F9CF089510927E0210927D027C
:101C4000089580937F021092B90084FF02C08CE057
:101C500001C088E48093B800EFCFDB011496ED91CA
:101C6000FC91159720E030E065E01994DB011496B3
:101C7000ED91FC91159720E030E062E01994DB01D2
:101C80001496ED91FC91159720E030E063E01994F3
:101C9000CF92DF92EF92FF920F931F93CF93DF9338
:101CA0008C017B016A0180E0F601C49181110AC0B8
:101CB000CF3F09F447C04C2FB701C801CEDF8111D7
:101CC0003FC045C0CF3F11F44FEFF6CFCE3F09F4F0
:101CD00040C0C03FA8F5C03E30F04C2F4F70B70158
:101CE000C801C4DF2DC0C03D30F04C2F4F70B7018C
:101CF000C801C5DF25C0C03CF0F0D7011496ED91B6
:101D0000FC91159720E030E040E064E0C8011995AF
:101D1000C295C07FCE5FD0E0CE0184DFD70114969C
:101D2000ED91FC91159720E030E041E064E0C801BE
:101D30001995CE0104C0C7FD03C08C2F90E072DF5F
:101D400080E001C081E0BFEFCB1ADB0AADCF80E0BD
:101D500001C081E0DF91CF911F910F91FF90EF9033
:101D6000DF90CF900895089580E090E008958F92DD
:101D70009F92AF92BF92CF92DF92FF920F931F93E9
:101D8000CF93DF931F921F92CDB7DEB76C018B010B
:101D9000F42E490120E1421709F45DC02417D8F060
:101DA0003AE0431701F18FE048135EC041E0C601FD
:101DB00066DF40E0B801C60159DF41E8B801C6015D
:101DC0004CDFF4014081B801C60147DF40E0B801B3
:101DD000C60155DFFEC0A1E14A1709F43FC0B5E1D5
:101DE0004B1789F041C0DB011496ED91FC911597DA
:101DF00020E030E042E061E019954FE657E1B8019C
:101E0000C60146DF31C0FB01A280B38047E657E13F
:101E10003FDFD50114964C91406BB801C6011DDF20
:101E200041E0B801C60122DFF50126813781D801E2
:101E30001496ED91FC911597D50115964C9166E09D
:101E4000C6011995811102C080E0C4C040E0B8010C
:101E5000C60115DF09C04EE557E102C043E557E171
:101E6000B801C60115DFB5C0D80112960D911C91BD
:101E70001397B2E3FB1609F473C0BF15B8F0E5E1A0
:101E8000FE1609F478C0F7E1FF1609F489C024E1D1
:101E9000F2129FC0D8011696ED91FC9117971596F6
:101EA0008C919F01280F311DC9015EC036E4F316E5
:101EB00009F486C087E4F81609F486C0ABE3FA1289
:101EC00088C0F40181819381913029F0933031F4FD
:101ED000482F885004C048E0480F01C0482F21E037
:101EE000D80113963C91381708F420E031E0F8014E
:101EF0005281451708F430E051E0481708F050E0EF
:101F0000822F852B382319F4252309F462C0D401CC
:101F10001296FC90913051F030F0923049F09330AD
:101F200051F42FEF09C020E031E007C021E004C0E8
:101F300020E03FEF02C020E030E0F7FE07C0B40130
:101F4000C8012A83398316DE39812A81F401808110
:101F5000830F80838181820F8183FF0C71F739C0E9
:101F6000B401C80107DE35C01192E817F907E1F79F
:101F7000C8012BDE2EC0C80112DE882309F464CF0D
:101F8000D8011696ED91FC91179715968C919F01AB
:101F9000280F311DC9011192E817F907E1F719C09F
:101FA000D4011C92F801828111968C93119785813E
:101FB000815012968C931297838113968C9309C04B
:101FC000D80115968C9103C0D80111968C91F4011B
:101FD000808381E00F900F90DF91CF911F910F913F
:101FE000FF90DF90CF90BF90AF909F908F9008951B
:101FF000DC011696ED91FC91179712968C91481B77
:10200000477081E090E001C0880F4A95EAF7E60F3B
:10201000F11D3081222311F0832B02C08095832390
:1020200080830895DB01ED91FC911994EF92FF926A
:102030000F931F93CF93DF931F92CDB7DEB78C0121
:10204000DC011296ED90FC901397D196ED91FC91E6
:10205000D29782E0199520E030E04AE0B701C8014C
:10206000E1DFF82ED801D196ED91FC91D29783E073
:102070001995D801D196ED91FC91D29780E01995F0
:10208000FF2081F1F801628173819E012F5F3F4F34
:1020900046E4C801C7DF8981D8018C9312966D91FF
:1020A0007C9113979E012F5F3F4F47E4C801BADF31
:1020B0008981F80181836281738120E030E048E406
:1020C000C801B0DFD8011B968C931B9798012D5C3B
:1020D0003F4F12966D917C91139747E1C801A2DFA3
:1020E00081E001C080E00F90DF91CF911F910F91AF
:1020F000FF90EF9008954F925F926F927F928F9230
:102100009F92AF92BF92CF92DF92EF92FF920F9386
:102110001F93CF93DF931F92CDB7DEB72C01E62E2E
:10212000F42EC22EDC0114960D911C911597C80156
:102130005DDDD82EF201848195815BDD982EF1E082
:10214000DF1203C02FE0A22E02C0AA24AA94D2015B
:1021500014968D919C91159745DDD82EF2018481BE
:1021600095813CDDB82ED20114968D919C911597E6
:1021700055DDB0E6BC1538F4009729F0080F191F9B
:1021800091E6D92E10C0F2018481958149DDF0E4F9
:10219000FC1538F4009729F0080F191F81E4D82E98
:1021A00002C00F5E1F4FBC1480F4D20150961C92E7
:1021B000509753961C92539754961C92549751964D
:1021C0001C92519752961C929EC0BD1470F3892D9B
:1021D00090E0F80124912F3F19F40F5F1F4F59C071
:1021E000DC104EC0D20114968D919C911597FEDCA7
:1021F00098012F5F3F4FF801882311F08230E1F4FE
:102200008491D20153968C935397F901249154965B
:102210002C935497F8013396E4915096EC93509791
:10222000F8013496E4915196EC935197F801359664
:10223000E4915296EC9320C08491982F9F70925015
:10224000D20152969C93529782958F7051968C939F
:102250005197F9012491822F8F7054968C93549743
:1022600022952F7053962C935397F8013296E49150
:10227000E295EF705096EC930115110579F443C087
:10228000F8013296E491EA219C012E0F311D020FD4
:10229000131FDB1409F489CFD3949BCFF2018481FF
:1022A0009581A7DCD20153963C91539754962C917B
:1022B000549751965C91519752969C915297920FD8
:1022C000F91A9FEF920F9F0DD4964C91D497D69602
:1022D0006C916F1518F0941728F402C0941780F0D1
:1022E0009F1570F4E50E9FEF930F9E0DD201D396CC
:1022F0004C91D397D5965C915E1538F4941738F4C9
:10230000F20180893EC080E03CC0941710F49E1515
:10231000B8F7080F111D395F732E76947694769472
:102320006F2C620E5201FCE1AF0EB11C872C912C78
:10233000F61431F35E2D68018C2D801B8715E8F4AF
:10234000F6018491D20112966D917C9113975C965F
:102350005C935C975D96FC925D975F961C925F978D
:102360005E968C9395014BE3C20159835BDEBFEF10
:10237000CB1ADB0A5981585FDFCF080D191DF39482
:10238000D7CF0F90DF91CF911F910F91FF90EF90DA
:10239000DF90CF90BF90AF909F908F907F906F9085
:1023A0005F904F900895CF92DF92EF92FF920F933C
:1023B0001F93CF93DF931F92CDB7DEB76C01DC0183
:1023C000DC961C91DC97DB960C917C01B4E0EB0E63
:1023D000F11CDC015996ED91FC915A97C701698374
:1023E0001995482F410F2981602FC70184DEF6011E
:1023F00023AD082E000C990B820F911D83AF81E055
:1024000090E00F90DF91CF911F910F91FF90EF908F
:10241000DF90CF90089590917E02911104C0809337
:102420007E0260937D0208951F93CF93DF931F92E6
:102430001F92CDB7DEB720ED37E03A832983909124
:10244000BC00982391F429813A81232B49F480918F
:102450007F02182F127081FD08C081E0DCDF06C00A
:1024600029813A8121503109E8CF11E0812F0F9065
:102470000F90DF91CF911F91089584E98093BC0064
:1024800064E080E1D1CFCF938093BB0084E8809358
:10249000BC0063E080E8C8DFC82F882381F080910A
:1024A0007F02C82FC27081FD09C08091B900887F6A
:1024B000883221F063E082E0AEDF01C0C1E08C2F02
:1024C000CF910895CF93DF93FC0123A5222369F0D8
:1024D000EC01B1D0811102C080E008C08EA1811151
:1024E00080E4D1DF8823C1F31BA681E0DF91CF9187
:1024F00008950F931F93CF93C42F89016330B9F0D0
:1025000050F4613081F0623009F03FC0FC0146A315
:1025100021E023A73AC06630E9F0673041F1653029
:1025200009F033C00CC0FC0186A58BDB2EC0FC017A
:1025300016A221E023A7411128C09FDF26C0C2DFD9
:10254000811103C09ADF80E021C08C2F9CDF8111B4
:102550001CC0F8CFB7DF8823A9F3CC23B1F0F80172
:1025600081918F0190DF882369F3C150F6CFAADFF4
:10257000882341F3CC2349F0F801849184DF882338
:1025800029F00F5F1F4FC150F5CF81E0CF911F9110
:102590000F910895CF92DF92EF92FF920F931F93C6
:1025A000CF93DF936C017A018B01C0E0D0E0CE15B0
:1025B000DF0589F0D8016D918D01D601ED91FC9177
:1025C0000190F081E02DC6011995892B11F47E014F
:1025D00002C02196ECCFC701DF91CF911F910F91DF
:1025E000FF90EF90DF90CF9008957CD48F929F92D0
:1025F000AF92BF92CF92DF92EF92FF926B017C017C
:1026000063DA4B015C01C60ED71EE81EF91E5CDAC8
:10261000681579058A059B0528F0C616D706E806D1
:10262000F906A8F7FF90EF90DF90CF90BF90AF90A2
:102630009F908F900895CF9384EA8093BC0061E0CF
:1026400080E8F2DE882351F08091B900887F8830DD
:1026500039F0803129F061E082E0DDDEC0E01BC0AE
:1026600088E78093BB0084E88093BC0062E080E848
:10267000DBDE882399F380917F02C82FC27081FD31
:1026800009C08091B900887F883121F062E082E042
:10269000C2DE01C0C1E08C2FCF9108956115710594
:1026A00079F0FB0101900020E9F73197AF01461B5B
:1026B000570BDC01ED91FC910280F381E02D199420
:1026C00080E090E008954F925F926F927F92EF9238
:1026D000FF920F931F93CF93DF93CDB7DEB7A197F0
:1026E0000FB6F894DEBF0FBECDBF7C01FA01CB015F
:1026F00019A2223008F42AE08E010F5D1F4F422EEE
:10270000512C612C712CBF01A3019201C1D3F9019D
:10271000CA01015011096A3014F4605D01C0695C9E
:10272000D8016C93232B242B252B69F7B801C70103
:10273000B5DFA1960FB6F894DEBF0FBECDBFDF9117
:10274000CF911F910F91FF90EF907F906F905F90CE
:102750004F900895789484B5826084BD84B581607B
:1027600084BD85B5826085BD85B5816085BD80915C
:102770006E00816080936E001092810080918100D4
:1027800082608093810080918100816080938100CC
:10279000809180008160809380008091B10084608E
:1027A0008093B1008091B00081608093B0008091EF
:1027B000910082608093910080919100816080936C
:1027C0009100809190008160809390008091A100A1
:1027D00082608093A1008091A10081608093A1001C
:1027E0008091A00081608093A0008091210182608F
:1027F000809321018091210181608093210180914A
:10280000200181608093200180917A008460809310
:102810007A0080917A00826080937A0080917A00B9
:10282000816080937A0080917A00806880937A003A
:102830001092C10010926103109262031092630320
:102840001092640310921F03109220031092210330
:102850001092220368EB7BE080E090E0C7DE80E826
:1028600092E09093600380935F03E0919002F09177
:10287000910282E08083E0918C02F0918D021082BF
:10288000E0918E02F0918F0280E180831092980295
:10289000E0919402F091950286E08083E0919202AB
:1028A000F0919302808180618083E0919202F091A7
:1028B0009302808188608083E0919202F09193027C
:1028C000808180688083E0919202F0919302808100
:1028D0008F7D8083F9D860931F03709320038093CA
:1028E00021039093220368E372E080915F0390914B
:1028F0006003D4DE6AE070E080E090E077DE81E0A3
:102900008093330380917403883211F48FEF03C0F6
:10291000823021F483E08093890309C08130D9F3A8
:10292000803329F48FEF8093890380938A03E6E64E
:10293000F1E02491E0E2F1E08491882399F090E0C5
:10294000880F991FFC01E250FF4FA591B491FC0143
:10295000EC51FF4F859194918FB7F894EC91E22B55
:10296000EC938FBF54EF852E99249394A12CB12C16
:1029700004EA11E06CEEE62E6DE0F62EA5D8672B8A
:10298000682B692B39F4A0D8623071058105910557
:1029900008F4FAC099D86093790270937A02809310
:1029A0007B0290937C0220917502309176024091D7
:1029B000770250917802621773078407950740F4F5
:1029C00060937502709376028093770290937802F9
:1029D0004090750250907602609077027090780275
:1029E0009B01AC01241935094609570929013A010F
:1029F0003AEF431651046104710408F4C5C06093B2
:102A00007502709376028093770290937802809299
:102A10002B0390922C03A0922D03B0922E031092C0
:102A20002F031092300310923103109232038091E1
:102A3000230390912403A0912503B0912603809352
:102A4000270390932803A0932903B0932A033CD82B
:102A500060932303709324038093250390932603AC
:102A600033D860931F0370932003809321039093C6
:102A700022032AD82B013C016AE472E080915F03B3
:102A8000909160030BDE2AE041E050E060E070E0EE
:102A900080915F039091600316DE61E572E08091A2
:102AA0005F0390916003FADD2AE0B301A2018091F7
:102AB0005F039091600307DE63E572E080915F033E
:102AC00090916003EBDD8091230390912403A0910A
:102AD0002503B0912603B301A201481B590B6A0BD1
:102AE0007B0B2AE080915F0390916003ECDD63E54E
:102AF00072E080915F0390916003D0DD40912303E9
:102B0000509124036091250370912603809127033F
:102B100090912803A0912903B0912A03481B590BD7
:102B20006A0B7B0B2AE080915F0390916003CBDD01
:102B300065E572E080915F0390916003AFDD0E94D4
:102B4000640DAB01BC012AE080915F0390916003AA
:102B5000BADDC0915F03D091600367E572E0CE01FA
:102B60009DDD67E472E0CE0199DD62E070E080E017
:102B700090E03CDD0E94640D609323037093240376
:102B800080932503909326038091A203811106C0B0
:102B900081E08093A20389E693E048DAC0916B0359
:102BA000D0916C03E0919A03F0919B0382E0199518
:102BB000E0919A03F0919B0381E0199520E030E0C9
:102BC00044E1BE0189E693E02DDA2CE933E047E1E8
:102BD000BE0189E693E026DAE0919A03F0919B0327
:102BE00080E0199539EA632E31E0732E40EBC42E54
:102BF00041E0D42E80916D0390916E03845A9140F0
:102C000009F43FC010936E0300936D03809180031D
:102C1000811106C0F301849180938103F60111C0F4
:102C2000813041F4E3EBF1E0849180938103E4EBA4
:102C3000F1E007C0E1EBF1E0849180938103E2EBE6
:102C4000F1E084918093820380918103082E000C2F
:102C5000990B20918203821B910927FD9395209166
:102C60008303203441F0829FC001112426E0969511
:102C700087952A95E1F780938403F0927F03E09291
:102C80007E03E0917E03F0917F0389E693E019953E
:102C900096E1292E280ECEE5D2E0312C299122236F
:102CA00039F0422D632D89E693E025DA380EF6CF10
:102CB000E0917703F0917803309719F089E693E07B
:102CC0001995C0916B03D0916C03E0919A03F09138
:102CD0009B0382E01995E0919A03F0919B0381E0B8
:102CE000199520E030E045E1BE0189E693E09AD9EC
:102CF000382E882339F02CE933E047E1BE0189E61C
:102D000093E090D9E0919A03F0919B0380E01995AC
:102D1000311070CF0E94CC0C31CE109283021092F1
:102D2000820288EE93E0A0E0B0E08093840290936A
:102D30008502A0938602B093870282E192E090938D
:102D400081028093800285EC90E090938D028093C5
:102D50008C0284EC90E090938F0280938E0280EC42
:102D600090E0909391028093900281EC90E0909398
:102D700093028093920282EC90E09093950280936C
:102D8000940286EC90E090939702809396021092C2
:102D9000990210929A0210929B0210929C02109239
:102DA00023031092240310922503109226031092FD
:102DB0002703109228031092290310922A031092DD
:102DC0002B0310922C0310922D0310922E031092BD
:102DD0002F0310923003109231031092320310929D
:102DE00068031092670384E292E0909366038093F5
:102DF00065031092A0031092A1031092A2031092F7
:102E00006E0310926D031092700310926F03109274
:102E1000720381E08093710382E2809373031092C6
:102E2000780310927703ECE8F3E09FEF8EE08E0FCB
:102E300091938E13FDCF81E0809389032CEE3DE0CA
:102E400030937F0320937E0380938003109281034D
:102E50001092820380E4809383031092840384E0C1
:102E60009DE090939B0380939A0388E092E0909377
:102E70006C0380936B0380E18093970389E693E072
:102E8000D5D880E392E0909366038093650308951C
:102E9000A1E21A2EAA1BBB1BFD010DC0AA1FBB1F5E
:102EA000EE1FFF1FA217B307E407F50720F0A21BD0
:102EB000B30BE40BF50B661F771F881F991F1A943D
:102EC00069F760957095809590959B01AC01BD0167
:102ED000CF010895EE0FFF1F881F8BBF0790F6915B
:102EE000E02D199481E090E0F89400C0F894FFCFB1
:102EF000084000000080A303B70E00027912000012
:102F00000000650CCA12FE0BAB0C2F0C0D0C210C33
:102F100000000000D311CA12B40EB30E000000006E
:102F2000D311CA12B40EB30E564D4450565F317CC5
:102F3000315F564D4450560D0A00564D4450455F82
:102F4000003A323A007C005F564D445045004865D7
:0C2F50006C6C6F20576F726C64210000E5
:020000023000CC
:10E000000D9489F10D94B2F10D94B2F10D94B2F129
:10E010000D94B2F10D94B2F10D94B2F10D94B2F1F0
:10E020000D94B2F10D94B2F10D94B2F10D94B2F1E0
:10E030000D94B2F10D94B2F10D94B2F10D94B2F1D0
:10E040000D94B2F10D94B2F10D94B2F10D94B2F1C0
:10E050000D94B2F10D94B2F10D94B2F10D94B2F1B0
:10E060000D94B2F10D94B2F10D94B2F10D94B2F1A0
:10E070000D94B2F10D94B2F10D94B2F10D94B2F190
:10E080000D94B2F10D94B2F10D94B2F10D94B2F180
:10E090000D94B2F10D94B2F10D94B2F10D94B2F170
:10E0A0000D94B2F10D94B2F10D94B2F10D94B2F160
:10E0B0000D94B2F10D94B2F10D94B2F10D94B2F150
:10E0C0000D94B2F10D94B2F10D94B2F10D94B2F140
:10E0D0000D94B2F10D94B2F10D94B2F10D94B2F130
:10E0E0000D94B2F141546D656761323536300041AF
:10E0F000726475696E6F206578706C6F72657220DE
:10E1000073746B3530305632206279204D4C530099
:10E11000426F6F746C6F616465723E004875683F52
:10E1200000436F6D70696C6564206F6E203D200048
:10E130004350552054797065202020203D20005FF9
:10E140005F4156525F415243485F5F3D2000415658
:10E1500052204C696243205665723D20004743437C
:10E160002056657273696F6E203D20004350552024
:10E1700049442020202020203D20004C6F7720663D
:10E18000757365202020203D20004869676820665F
:10E190007573652020203D200045787420667573D6
:10E1A00065202020203D20004C6F636B2066757336
:10E1B000652020203D20004D617220203720323024
:10E1C000313300312E362E3800342E332E350056A2
:10E1D00023202020414444522020206F7020636F70
:10E1E00064652020202020696E73747275637469E1
:10E1F0006F6E2061646472202020496E74657272B3
:10E20000757074006E6F20766563746F7200726A49
:10E210006D702020006A6D70200057686174207056
:10E220006F72743A00506F7274206E6F7420737541
:10E2300070706F72746564004D7573742062652030
:10E2400061206C6574746572002000577269747483
:10E25000696E672045450052656164696E672045B7
:10E26000450045452065727220636E743D00504F35
:10E27000525400303D5A65726F2061646472003FF1
:10E280003D43505520737461747300403D454550C3
:10E29000524F4D207465737400423D426C696E6B41
:10E2A000204C454400453D44756D70204545505215
:10E2B0004F4D00463D44756D7020464C415348001B
:10E2C000483D48656C70004C3D4C69737420492F83
:10E2D0004F20506F72747300513D51756974005234
:10E2E0003D44756D702052414D00563D73686F7707
:10E2F00020696E7465727275707420566563746FF0
:10E30000727300593D506F727420626C696E6B00BD
:10E310002A0011241FBECFEFD1E2DEBFCDBF01E046
:10E320000CBF12E0A0E0B2E0EEE1FDEF03E00BBFB6
:10E3300002C007900D92A030B107D9F712E0A0E01B
:10E34000B2E001C01D92AE30B107E1F70F9460F367
:10E350000D948DFE01E20EBF0FEF0DBF11241FBE05
:10E360000D9460F30D9400F020E030E040ED57E0B4
:10E3700005C0FA013197F1F72F5F3F4F2817390792
:10E38000C0F308959C01260F311DC901A0E0B0E043
:10E390002F5F3F4FABBFFC018791882361F08093D3
:10E3A000C6008091C00086FFFCCF8091C0008064D1
:10E3B0008093C000EACF08958DE08093C6008091DD
:10E3C000C00086FFFCCF8091C00080648093C000B5
:10E3D0008AE08093C6008091C00086FFFCCF8091C8
:10E3E000C00080648093C00008950F94C2F10F9420
:10E3F000DCF10895FC019081992359F09093C600B7
:10E400008091C00086FFFCCF8091C0008064809323
:10E41000C0003196992379F70895282F982F929567
:10E420009F70892F805D8A3308F0895F8093C600D2
:10E430008091C00086FFFCCF8091C00080648093F3
:10E44000C000822F8F70982F905D9A3308F0995FEB
:10E450009093C6008091C00086FFFCCF8091C000E1
:10E4600080648093C00008959C01FB01853691056E
:10E470001CF46330710594F0C90164E670E00F94F8
:10E480002EFE605D7F4F6093C6008091C00086FFC6
:10E49000FCCF8091C00080648093C0002B30310598
:10E4A00014F43297B4F0C90164E670E00F942EFEC4
:10E4B0006AE070E00F942EFE605D7F4F6093C600AF
:10E4C0008091C00086FFFCCF8091C0008064809363
:10E4D000C000C9016AE070E00F942EFEC0968093E0
:10E4E000C6008091C00086FFFCCF8091C000806490
:10E4F0008093C00008951F93182F8EE692EE60E07F
:10E500000F94C2F11093C6008091C00086FFFCCF2B
:10E510008091C00080648093C0000F94DCF11F9153
:10E5200008952F923F924F925F926F927F928F92B7
:10E530009F92AF92BF92CF92DF92EF92FF920F9392
:10E540001F93DF93CF93CDB7DEB762970FB6F894E2
:10E55000DEBF0FBECDBF382E622ECA01DB015C01CB
:10E560006D01772420E2222E2E010894411C511CBB
:10E570008BC081E0A81680E0B80681E0C80680E084
:10E58000D80628F0C601AA27BB270F940DF2BB2797
:10E59000AD2D9C2D8B2D0F940DF28A2D0F940DF225
:10E5A0002092C6008091C00086FFFCCF8091C00001
:10E5B00080648093C0009DE29093C6008091C0006B
:10E5C00086FFFCCF8091C00080648093C0002092C1
:10E5D000C6008091C00086FFFCCF8091C00080649F
:10E5E0008093C00019828601750188249924A1E0D6
:10E5F0003A1651F03A1620F0B2E03B1661F409C029
:10E600000BBFF701779007C0C7010F9477FE782EF4
:10E6100002C0F7017080872D0F940DF22092C60082
:10E620008091C00086FFFCCF8091C0008064809301
:10E63000C000872D8052F401EF70F0708F3520F408
:10E64000E40DF51D708204C0E40DF51D8EE280839B
:10E650000894E11CF11C011D111D0894811C911CE2
:10E6600090E18916910409F0C2CF80E190E0A0E02A
:10E67000B0E0A80EB91ECA1EDB1E198AC2010F9493
:10E68000FAF10F94DCF16A94662009F072CF629679
:10E690000FB6F894DEBF0FBECDBFCF91DF911F91B3
:10E6A0000F91FF90EF90DF90CF90BF90AF909F9031
:10E6B0008F907F906F905F904F903F902F90089534
:10E6C0002F923F924F925F926F927F928F929F9282
:10E6D000AF92BF92CF92DF92EF92FF920F931F9370
:10E6E000DF93CF93CDB7DEB7CD53D1400FB6F894BB
:10E6F000DEBF0FBECDBF01E20EBF0FEF0DBF94B75F
:10E70000F894A89514BE80916000886180936000A1
:10E7100010926000789493FF05C0E0910002F091A0
:10E7200001021995279A2F9A8091C00082608093E8
:10E73000C00080E18093C40088E18093C1000000A4
:10E74000EE24FF24870144E0A42EB12CCC24DD2448
:10E7500024C0C5010197F1F70894E11CF11C011DCB
:10E76000111D21E2E2162EE4F20620E0020720E06D
:10E77000120718F031E0C32ED12CC801B70127ECE5
:10E780003BE140E050E00F9441FE611571058105C9
:10E79000910519F485B1805885B98091C00087FD35
:10E7A00003C0C114D104A9F2A6014F5F5F4FC25E3E
:10E7B000DE4F59834883CE51D140C25EDE4F8881FF
:10E7C0009981CE51D140019711F00D9410FEC05D9A
:10E7D000DE4F19821882C053D14060E0C15DDE4F28
:10E7E0001882CF52D14088249924C35DDE4F19820C
:10E7F0001882CD52D140C05EDE4F188219821A8233
:10E800001B82C052D140CE5CDE4F188219821A8220
:10E810001B82C253D140EE24FF2487010BBFF701B6
:10E8200007911691C45CDE4F19830883CC53D14005
:10E830000D940BFEC25EDE4F28813981CE51D1404E
:10E840002130310509F52091C600C25EDE4F1982E4
:10E850001882CE51D14022C02F5F3F4F4F4F5F4FA4
:10E86000213082E138078AE7480780E0580780F0C6
:10E87000C45CDE4FE881F981CC53D140EF5FFF4F9C
:10E8800019F0EE27FF27099420E030E040E050E047
:10E890008091C00087FFE0CF2091C600C35DDE4FAE
:10E8A00048815981CD52D1404F5F5F4FC35DDE4FEC
:10E8B00059834883CD52D140213209F063C64A3092
:10E8C000510508F05FC60894811C911C53E0851621
:10E8D000910409F059C600E010E018C081E280936D
:10E8E000C6008091C00086FFFCCF8091C00080648C
:10E8F0008093C0002F5F3F4F2931310579F70F9486
:10E90000DCF10F5F1F4F0530110519F020E030E0FA
:10E91000E5CF10920A0210920B0210920C02109294
:10E920000D02109206021092070210920802109235
:10E930000902109202021092030210920402109235
:10E9400005028FEE90EE60E00F94F5F180E191EE1C
:10E9500060E00F94C2F18091C00087FFFCCF9091DE
:10E96000C600903608F09F759032B8F09093C600BC
:10E970008091C00086FFFCCF8091C00080648093AE
:10E98000C000A0E2A093C6008091C00086FFFCCF2B
:10E990008091C00080648093C000983409F4D7C18E
:10E9A0009934B8F4923409F459C1933458F490333B
:10E9B00019F1903308F4E3C59F33A1F1903409F0C5
:10E9C000DEC5BDC0953409F470C1963409F0D7C5D1
:10E9D00098C1923509F42BC2933538F49C3409F46C
:10E9E000F5C1913509F0CBC518C2963509F445C279
:10E9F000993509F0C4C567C483E792EE62E00F94CD
:10EA0000F5F110920602109207021092080210927D
:10EA1000090210920A0210920B0210920C0210923C
:10EA20000D0213C18FE792EE62E00F94F5F18FEEC5
:10EA300090EE60E00F94F5F181E291EE60E00F94CA
:10EA4000C2F187EB91EE60E00F94F5F180E391EE77
:10EA500060E00F94C2F184EE90EE60E00F94F5F167
:10EA60008FE391EE60E00F94C2F186E090E061E008
:10EA700070E00F9434F20F94DCF18DE591EE60E0DC
:10EA80000F94C2F189EC91EE60E00F94F5F18EE401
:10EA900091EE60E00F94C2F183EC91EE60E00F9490
:10EAA000F5F18CE691EE60E00F94C2F18EE10F94E7
:10EAB0000DF288E90F940DF281E00F940DF20F949E
:10EAC000DCF18BE791EE60E00F94C2F119E0E0E039
:10EAD000F0E010935700E4918E2F0F940DF20F94F5
:10EAE000DCF18AE891EE60E00F94C2F1E3E0F0E03F
:10EAF00010935700E4918E2F0F940DF20F94DCF1D8
:10EB000089E991EE60E00F94C2F1E2E0F0E0109349
:10EB10005700E4918E2F0F940DF20F94DCF188EAE8
:10EB200091EE60E00F94C2F1E1E0F0E01093570045
:10EB30001491812F0F940DF20F94DCF107CF8BE825
:10EB400092EE62E00F94F5F18BE492EE60E00F94A8
:10EB5000F5F10F94DCF100E010E019C0C8016F2D51
:10EB60000F947FFEFF2031F489E492EE60E00F9471
:10EB7000C2F10BC0F092C6008091C00086FFFCCFAE
:10EB80008091C00080648093C0000F5F1F4FC80158
:10EB900081519F41A0E0B0E0ABBFFC01F790BAE229
:10EBA000FB1621F0E2E000301E07C1F60F94DCF105
:10EBB0000F94DCF187E592EE60E00F94F5F10F948D
:10EBC000DCF1CC24DD2400E010E01EC0C8010F946D
:10EBD00077FEF82E882331F489E492EE60E00F94FA
:10EBE000C2F10BC08093C6008091C00086FFFCCFAD
:10EBF0008091C00080648093C000FE1419F00894D6
:10EC0000C11CD11C0F5F1F4FC80181519F41A0E063
:10EC1000B0E0ABBFFC01E790FAE2EF1621F022E092
:10EC20000030120799F60F94DCF10F94DCF182E6C4
:10EC300092EE60E00F94C2F1C60161E070E00F94C3
:10EC400034F20F94DCF10F94DCF110920202109276
:10EC50000302109204021092050278CE89E992EE26
:10EC600062E00F94F5F1279A2F9A16C02F9880E052
:10EC700090E0E0EDF7E03197F1F7019684369105E9
:10EC8000C1F72F9A80E090E0E0EDF7E03197F1F7DF
:10EC9000019684369105C1F78091C00087FFE6CFC9
:10ECA0008091C00087FFFCCF64C485EA92EE62E0E9
:10ECB0000F94F5F140910202509103026091040219
:10ECC0007091050281E020E10F9491F2809102029F
:10ECD00090910302A0910402B091050280509F4FD1
:10ECE000AF4FBF4F8093020290930302A0930402A0
:10ECF000B093050280509041A040B04008F426CE69
:10ED0000A4CF83EB92EE62E00F94F5F140910602FE
:10ED100050910702609108027091090280E020E1A1
:10ED20000F9491F28091060290910702A09108023F
:10ED3000B091090280509F4FAF4FBF4F80930602A2
:10ED400090930702A0930802B0930902FFCD80ECD4
:10ED500092EE62E00F94F5F183E792EE60E00F949B
:10ED6000F5F18FE792EE60E00F94F5F18BE892EE0B
:10ED700060E00F94F5F189E992EE60E00F94F5F10F
:10ED800085EA92EE60E00F94F5F183EB92EE60E09D
:10ED90000F94F5F180EC92EE60E00F94F5F187ECC2
:10EDA00092EE60E00F94F5F188ED92EE60E00F9442
:10EDB000F5F18FED92EE60E00F94F5F18AEE92EEB0
:10EDC00060E00F94F5F183E093EEBDCD87EC92EE19
:10EDD00062E00F94F5F181E40F947BF282E40F94EA
:10EDE0007BF283E40F947BF284E40F947BF285E45E
:10EDF0000F947BF286E40F947BF287E40F947BF20E
:10EE000088E40F947BF28AE40F947BF28BE40F94F6
:10EE10007BF28CE40F947BF299CD88ED92EE62E068
:10EE20000F94F5F1772473948824992409C48FED05
:10EE300092EE62E00F94F5F140910A0250910B02BC
:10EE400060910C0270910D0282E020E10F9491F22A
:10EE500080910A0290910B02A0910C02B0910D02D8
:10EE600080509F4FAF4FBF4F80930A0290930B0289
:10EE7000A0930C02B0930D0269CD8AEE92EE62E08F
:10EE80000F94F5F184EE90EE60E00F94F5F18FECC5
:10EE900091EE60E00F94F5F1662477244301CC5D98
:10EEA000DE4F19821882C452D140D401C301B695F5
:10EEB000A79597958795CA5DDE4F88839983AA8326
:10EEC000BB83C652D140CC5DDE4FA881B981C4520C
:10EED000D1401196CC5DDE4FB983A883C452D14096
:10EEE000CD0162E070E00F9434F2B0E2B093C6005E
:10EEF0008091C00086FFFCCF8091C0008064809329
:10EF0000C000EDE2E093C6008091C00086FFFCCF18
:10EF10008091C00080648093C000F0E2F093C6004E
:10EF20008091C00086FFFCCF8091C00080648093F8
:10EF3000C000CA5DDE4FE880F9800A811B81C6529D
:10EF4000D140BB27A12F902F8F2D0F940DF2CA5DBA
:10EF5000DE4F8881C652D1400F940DF2B0E2FB2EF5
:10EF6000F092C6008091C00086FFFCCF8091C00067
:10EF700080648093C0000DE30093C6008091C000C0
:10EF800086FFFCCF8091C00080648093C00010E2B7
:10EF90001093C6008091C00086FFFCCF8091C00016
:10EFA00080648093C0008BBEF3012791C65DDE4F65
:10EFB0002883CA52D140A22EBB24CC24DD2408943D
:10EFC000611C711C811C911C8BBEF3018791282E42
:10EFD0003324442455240894611C711C811C911C09
:10EFE0008BBEF3013791C55DDE4F3883CB52D140E4
:10EFF0000894611C711C811C911C8BBEF30147910C
:10F00000C45DDE4F4883CC52D140ADEFEA2EAFEF66
:10F01000FA2EAFEF0A2FAFEF1A2F6E0C7F1C801E57
:10F02000911E142D032DF22CEE24EA0CFB1C0C1D5A
:10F030001D1D0F940DF220E22093C6008091C000A8
:10F0400086FFFCCF8091C00080648093C000C65DC5
:10F05000DE4F8881CA52D1400F940DF230E23093D6
:10F06000C6008091C00086FFFCCF8091C000806404
:10F070008093C000C45DDE4F8881CC52D1400F9494
:10F080000DF240E24093C6008091C00086FFFCCFA5
:10F090008091C00080648093C000C55DDE4F888190
:10F0A000CB52D1400F940DF250E25093C6008091A4
:10F0B000C00086FFFCCF8091C00080648093C000B8
:10F0C0008FEFE8168FEFF80680E0080780E018075A
:10F0D00031F484E092EE60E00F94C2F1DFC0D80119
:10F0E000C7018070907CA070B0708050904CA040A0
:10F0F000B040D1F52FEF3FE340E050E0E222F322B1
:10F1000004231523CA5DDE4FA880B980CA80DB8046
:10F11000C652D140AE0CBF1CC01ED11EAA0CBB1CD7
:10F12000CC1CDD1C8EE092EE60E00F94C2F1BB2798
:10F13000A12F902F8F2D0F940DF28E2D0F940DF285
:10F1400030E23093C6008091C00086FFFCCF8091F2
:10F15000C00080648093C0004EE34093C60080915D
:10F16000C00086FFFCCF87C08EE09EEFA0E0B0E03D
:10F17000E822F9220A231B239CE0E91694E9F90608
:10F1800090E0090790E0190709F088C0C45DDE4FE0
:10F19000A881CC52D140EA2EFF2400E010E0102FCD
:10F1A0000F2DFE2CEE24C55DDE4FB881CB52D14031
:10F1B000EB0EF11C011D111DD601C501817090706F
:10F1C000A070B070DC0199278827E80EF91E0A1F8D
:10F1D0001B1F20EF30E040E050E0A222B322C42207
:10F1E000D52241E1AA0CBB1CCC1CDD1C4A95D1F7F1
:10F1F000EA0CFB1C0C1D1D1D81E090E0A0E0B0E0BE
:10F20000282239224A225B2235E1220C331C441C7D
:10F21000551C3A95D1F7E20CF31C041D151D57013E
:10F220006801AA0CBB1CCC1CDD1C85E192EE60E0E1
:10F230000F94C2F1C801AA27BB270F940DF2BB2778
:10F24000A12F902F8F2D0F940DF28E2D0F940DF274
:10F2500090E29093C6008091C00086FFFCCF809121
:10F26000C00080648093C000AEE3A093C60080918C
:10F27000C00086FFFCCF8091C00080648093C000F6
:10F28000C601AA27BB270F940DF2BB27AD2D9C2DDD
:10F290008B2D0F940DF28A2D0F940DF20F94DCF14B
:10F2A000CC5DDE4FE881F981C452D140F99709F471
:10F2B0004DCBF4E0EF2EF12C012D112D6E0C7F1CA7
:10F2C000801E911EF2CD83E093EE62E00F94F5F183
:10F2D0008AE192EE60E00F94C2F18091C00087FF56
:10F2E000FCCF1091C6001F751093C6008091C0001E
:10F2F00086FFFCCF8091C00080648093C0000F9493
:10F30000DCF1812F81548A3108F036C1163409F4BA
:10F3100095C0173490F4133409F44EC0143430F40B
:10F320001134F1F0123409F01DC130C0143409F465
:10F3300059C0153409F016C16BC01A3409F4C4C0A1
:10F340001B3438F4173409F48FC0183409F00AC19B
:10F35000A1C01B3409F4D2C01C3409F003C1E8C0B9
:10F360008FEF81B90DC082B1809582B980E090E0C5
:10F37000E0EDF7E03197F1F70196883C9105C1F790
:10F380008091C00087FFEFCF12B8EFC08FEF84B934
:10F390000DC085B1809585B980E090E0E0EDF7E0A3
:10F3A0003197F1F70196883C9105C1F78091C00033
:10F3B00087FFEFCF15B8D9C08FEF87B90DC088B1DF
:10F3C000809588B980E090E0E0EDF7E03197F1F7C3
:10F3D0000196883C9105C1F78091C00087FFEFCF6F
:10F3E00018B8C3C08FEF8AB90DC08BB180958BB9A7
:10F3F00080E090E0E0EDF7E03197F1F70196883C8E
:10F400009105C1F78091C00087FFEFCF1BB8ADC059
:10F410008FEF8DB90DC08EB180958EB980E090E0F0
:10F42000E0EDF7E03197F1F70196883C9105C1F7DF
:10F430008091C00087FFEFCF1EB897C08FEF80BBD1
:10F440000DC081B3809581BB80E090E0E0EDF7E0F6
:10F450003197F1F70196883C9105C1F78091C00082
:10F4600087FFEFCF11BA81C08FEF83BB0DC084B38C
:10F47000809584BB80E090E0E0EDF7E03197F1F714
:10F480000196883C9105C1F78091C00087FFEFCFBE
:10F4900014BA6BC08FEF809301010FC080910201FD
:10F4A00080958093020180E090E0E0EDF7E03197F5
:10F4B000F1F70196883C9105C1F78091C00087FF64
:10F4C000EDCF1092020151C08FEF809304010FC065
:10F4D0008091050180958093050180E090E0E0ED4A
:10F4E000F7E03197F1F70196883C9105C1F78091DB
:10F4F000C00087FFEDCF1092050137C08FEF8093DA
:10F5000007010FC08091080180958093080180E079
:10F5100090E0E0EDF7E03197F1F70196883C910536
:10F52000C1F78091C00087FFEDCF109208011DC088
:10F530008FEF80930A010FC080910B01809580931B
:10F540000B0180E090E0E0EDF7E03197F1F70196F4
:10F55000883C9105C1F78091C00087FFEDCF1092E4
:10F560000B0103C085E292EEEEC98091C00087FFD7
:10F57000FCCF8091C600EAC988E392EEE4C98CE131
:10F5800091EEE1C988249924933011F1943028F444
:10F59000913089F09230B8F408C0953061F195301F
:10F5A000F0F0963009F048C043C02B3109F042C951
:10F5B00091E06BE13FC96227C15DDE4F2883CF52E6
:10F5C000D14092E037C9B22FA0E0622793E032C960
:10F5D000822F90E0A82BB92B622794E02BC92E3004
:10F5E00009F039C3622795E0C05DDE4F19821882A9
:10F5F000C053D1401FC9E1E0F0E0EC0FFD1FC05D3A
:10F60000DE4F08811981C053D140E00FF11F2083E4
:10F610000F5F1F4FC05DDE4F19830883C053D14079
:10F6200062270A171B0709F005C9D80196E002C92D
:10F63000261709F010C303C0973009F0FBC87724E0
:10F640009981933109F412C19431C8F4963009F4C8
:10F65000D8C0973050F4923009F406C1933009F4C1
:10F660006DC0913009F059C253C0913109F477C08F
:10F67000923108F0BBC0903109F04FC2F5C098310B
:10F6800009F487C0993150F4953109F4EFC09531F0
:10F6900008F4C6C1963109F040C2C2C19A3109F4DA
:10F6A0006CC09A3108F491C09B3109F45BC09D3164
:10F6B00009F033C29D81903359F48F81882311F46E
:10F6C0009EE11CC0813011F091E018C098E916C08D
:10F6D000892F807591F0903539F4E0E0F0E089E011
:10F6E0008093570094910AC0983539F4E3E0F0E034
:10F6F00089E080935700949101C090E01A821B82A8
:10F700008D818C831D829E831F8227E030E009C299
:10F710001A8288E08B8381E48C8386E58D8382E581
:10F720008E8389E48F8383E5888780E589878FE5E9
:10F730008A8782E38B872BE030E0F3C18A818139AD
:10F7400041F0823941F0803911F48FE005C080E04A
:10F7500003C082E001C08AE01A828B8344C0772410
:10F76000739482C08D81882311F48EE12CC0813086
:10F7700011F081E028C088E926C01A82E1E0F0E0BB
:10F7800089E08093570084918B831C8224E030E0D1
:10F79000C8C18B81803589F48C81883039F4E2E0EE
:10F7A000F0E089E08093570084910DC0E0E0F0E044
:10F7B00089E080935700849106C0E3E0F0E089E09F
:10F7C0008093570084911A82DFCF8D81836C99E0FA
:10F7D000E1E0F0E0082E90935700E89507B600FCB2
:10F7E000FDCF1A821B8223E030E09BC180EC8A832C
:10F7F000CE5CDE4F188219821A821B82C253D1401E
:10F800008EC18A8190E0A0E0B0E0582F44273327D2
:10F8100022278B8190E0A0E0B0E0DC0199278827C7
:10F82000282B392B4A2B5B2B8D8190E0A0E0B0E098
:10F83000282B392B4A2B5B2B8C8190E0A0E0B0E089
:10F84000BA2FA92F982F8827282B392B4A2B5B2BCF
:10F85000220F331F441F551FC05EDE4F288339839C
:10F860004A835B83C052D1401A8259C13A81C95C34
:10F87000DE4F3883C753D140CA5CDE4F1882C6536F
:10F88000D1408B81C82EDD24CA5CDE4F488159816E
:10F89000C653D140C42AD52A933109F082C0CE5C28
:10F8A000DE4F88819981AA81BB81C253D1408050AB
:10F8B000904CA340B04030F583E0CE5CDE4FE88052
:10F8C000F9800A811B81C253D140F70100935B008C
:10F8D00080935700E89507B600FCFDCFCE5CDE4F65
:10F8E000088119812A813B81C253D14000501F4FAA
:10F8F0002F4F3F4FCE5CDE4F088319832A833B8313
:10F90000C253D140C05EDE4F488159816A817B81FC
:10F91000C052D140DE011B9631E08C9111962C91A2
:10F9200011971296C75CDE4F2883C953D140C85C3B
:10F93000DE4F1882C853D14090E0C85CDE4FE881AA
:10F94000F981C853D1408E2B9F2B0C01FA01609393
:10F950005B0030935700E89511244E5F5F4F6F4F67
:10F960007F4F0EEFE02E0FEFF02ECE0CDF1CC114F8
:10F97000D10499F685E0C05EDE4F088119812A81A5
:10F980003B81C052D140F80120935B008093570027
:10F99000E89507B600FCFDCF81E180935700E8951C
:10F9A00035C0C05EDE4F88819981AA81BB81C0527B
:10F9B000D140B695A795979587957C018601ABE0D8
:10F9C000AA2EB12CAC0EBD1E0BC0D5016D915D01F0
:10F9D000C7010F947FFE0894E11CF11C01501040F8
:10F9E0000115110591F7A60160E070E0440F551F65
:10F9F000661F771FC05EDE4FE880F9800A811B8199
:10FA0000C052D1404E0D5F1D601F711F1A82C05E33
:10FA1000DE4F488359836A837B83C052D1407FC0C5
:10FA2000FA80C55CDE4FF882CB53D140C65CDE4F16
:10FA30001882CA53D1408B81C82EDD24C65CDE4FAC
:10FA400008811981CA53D140C02AD12A1A828981DA
:10FA5000BE016D5F7F4F843121F59601C05EDE4FA0
:10FA6000E880F9800A811B81C052D1400BBFF701A9
:10FA700087919691DB018C9311969C936E5F7F4FDB
:10FA8000D801C7010296A11DB11DC05EDE4F88835B
:10FA90009983AA83BB83C052D14022503040F1F6F3
:10FAA00036C0C05EDE4F288139814A815B81C052F9
:10FAB000D1400894C108D108760100E010E0089414
:10FAC000C11CD11C0894E11CF11C011D111DE20E8A
:10FAD000F31E041F151F21BDBB27A52F942F832FB5
:10FAE00082BD2F5F3F4F4F4F5F4FF89A80B5DB01CC
:10FAF0008D93BD012E153F054007510761F7C05E8C
:10FB0000DE4F288339834A835B83C052D1409601FC
:10FB10002D5F3F4FFB01108204C080EC8A8322E0FE
:10FB200030E08BE18093C6008091C00086FFFCCF5F
:10FB30008091C00080648093C000C15DDE4FF88179
:10FB4000CF52D140F093C6008091C00086FFFCCF19
:10FB50008091C00080648093C000432F3093C60022
:10FB60008091C00086FFFCCF8091C00080648093AC
:10FB7000C000922F2093C6008091C00086FFFCCF6A
:10FB80008091C00080648093C0008EE08093C600A6
:10FB90008091C00086FFFCCF8091C000806480937C
:10FBA000C00065E1C15DDE4FE880CF52D1406E25D7
:10FBB00069276427FE01319610C090819093C6009A
:10FBC0008091C00086FFFCCF31968091C000806498
:10FBD0008093C0006927215030402115310569F715
:10FBE0006093C6008091C00086FFFCCF8091C0006A
:10FBF00080648093C00085B1805885B9772081F4F6
:10FC0000C15DDE4F0881CF52D1400F5FC15DDE4F35
:10FC10000883CF52D14090E0A0E0B0E00D941AF4F8
:10FC200027982F9880E090E020ED37E0F901319798
:10FC3000F1F7019684369105C9F700008091C00064
:10FC40008D7F8093C00081E180935700E895EE2777
:10FC5000FF270994FFCF90E00D941AF497FB092E2B
:10FC600007260AD077FD04D02ED006D000201AF443
:10FC7000709561957F4F0895F6F7909581959F4F08
:10FC80000895A1E21A2EAA1BBB1BFD010DC0AA1FDD
:10FC9000BB1FEE1FFF1FA217B307E407F50720F0F5
:10FCA000A21BB30BE40BF50B661F771F881F991F70
:10FCB0001A9469F760957095809590959B01AC01B9
:10FCC000BD01CF010895AA1BBB1B51E107C0AA1FAC
:10FCD000BB1FA617B70710F0A61BB70B881F991FED
:10FCE0005A95A9F780959095BC01CD010895F99991
:10FCF000FECF92BD81BDF89A992780B50895262F31
:10FD0000F999FECF1FBA92BD81BD20BD0FB6F89400
:0EFD1000FA9AF99A0FBE01960895F894FFCF63
:040000033000E000E9
:00000001FF