:1000000072C000009EC000009CC000009AC00000AA
:1000100098C0000096C0000094C0000092C000008C
:1000200090C000008EC000008CC000008AC000009C
:1000300088C0000086C0000084C0000082C00000AC
:1000400080C000007EC000007CC000007AC00000BC
:1000500078C0000076C0000074C0000095C20000A7
:1000600070C000005BC2000030C200006AC0000027
:1000700068C0000066C0000064C0000062C00000EC
:1000800060C000005EC000005CC000005AC00000FC
:1000900058C0000056C0000054C0000052C000000C
:1000A00050C000004EC000004CC000004AC000001C
:1000B00048C0000046C0000044C0000042C000002C
:1000C00040C000003EC000003CC000003AC000003C
:1000D00038C0000036C0000034C0000032C000004C
:1000E00030C000000E0311241FBECFEFD1E2DEBFEF
:1000F000CDBF00E00CBF23E0A8E3B2E001C01D9239
:10010000AE32B207E1F712E0A0E0B2E0E2ECFAE0D2
:1001100000E00BBF02C007900D92A833B107D9F7DA
:1001200010E0C3E7D0E000E005C021970109802F6F
:10013000FE01B9D4C237D10780E00807B1F7ADD2CC
:10014000BEC45ECFCF92DF92EF92FF920F931F93C8
:10015000CF93DF936C017A018B01C0E0D0E0CE1524
:10016000DF0589F0D8016D918D01D601ED91FC91EB
:100170000190F081E02DC6011995892B11F47E01C3
:1001800002C02196ECCFC701DF91CF911F910F9153
:10019000FF90EF90DF90CF900895089580E090E079
:1001A0000895FC01538D448D252F30E0842F90E07D
:1001B000821B930B541710F0CF9608950197089562
:1001C000FC01918D828D981761F0828DDF01A80F5F
:1001D000B11D5D968C91928D9F5F9F73928F90E081
:1001E00008958FEF9FEF0895FC01918D828D9817F0
:1001F00031F0828DE80FF11D858D90E008958FEF2D
:100200009FEF0895FC01918D228D892F90E0805CF5
:100210009F4F821B91098F739927089589E492E07B
:10022000F1DF21E0892B09F420E0822F0895FC0101
:10023000848DDF01A80FB11DA35ABF4F2C91848D6F
:1002400090E001968F739927848FA689B7892C93A4
:10025000A089B1898C9180648C93938D848D98133F
:1002600006C00288F389E02D80818F7D8083089508
:10027000EF92FF920F931F93CF93DF93EC0181E0F6
:10028000888F9B8D8C8D981305C0E889F9898081B2
:1002900085FD23C0F62E0B8D10E00F5F1F4F0F73EF
:1002A0001127E02E8C8DE8120BC00FB607FCFACF99
:1002B000E889F989808185FFF5CFCE01B8DFF2CFDB
:1002C0008B8DFE01E80FF11DE35AFF4FF0820B8F7B
:1002D000EA89FB898081806207C0EE89FF8960839B
:1002E000E889F98980818064808381E090E0DF91F2
:1002F000CF911F910F91FF90EF900895CF93DF93CF
:10030000EC01888D8823C1F0EA89FB89808185FD15
:1003100005C0A889B9898C9186FD0EC00FB607FC6F
:10032000F5CF808185FFF2CFA889B9898C9185FFAF
:10033000EDCFCE017CDFE8CFDF91CF91089580E053
:1003400090E0892B19F06ADF811125C080E090E0F0
:10035000892B41F080E090E0892B21F00E94000081
:1003600081111CC080E090E0892B41F080E090E09A
:10037000892B21F00E940000811113C080E090E0E1
:10038000892BA1F080E090E0892B81F00E94000091
:1003900081110AC008950E940000D8CF0E94000079
:1003A000E1CF0E940000EACF0C94000008952FB71F
:1003B000F89460913D0270913E0280913F029091CD
:1003C00040022FBF08958F929F92AF92BF92CF921B
:1003D000DF92EF92FF926B017C01E9DF4B015C0140
:1003E000C60ED71EE81EF91EE2DF681579058A05DC
:1003F0009B0528F0C616D706E806F906A8F7FF9071
:10040000EF90DF90CF90BF90AF909F908F90089526
:1004100052D36115710579F0FB0101900020E9F7D5
:100420003197AF01461B570BDC01ED91FC91028027
:10043000F381E02D199480E090E008954F925F924F
:100440006F927F92EF92FF920F931F93CF93DF9360
:10045000CDB7DEB7A1970FB6F894DEBF0FBECDBF04
:100460007C01FA01CB0119A2223008F42AE08E01A6
:100470000F5D1F4F422E512C612C712CBF01A30127
:100480009201EFD2F901CA01015011096A3014F446
:10049000605D01C0695CD8016C93232B242B252B54
:1004A00069F7B801C701B5DFA1960FB6F894DEBFB2
:1004B0000FBECDBFDF91CF911F910F91FF90EF90B5
:1004C0007F906F905F904F9008951F920F920FB69C
:1004D0000F9211240BB60F922F933F934F935F937C
:1004E0006F937F938F939F93AF93BF93EF93FF93FC
:1004F00089E492E09CDEFF91EF91BF91AF919F91D3
:100500008F917F916F915F914F913F912F910F90BC
:100510000BBE0F900FBE0F901F9018951F920F9259
:100520000FB60F9211240BB60F922F938F939F93B8
:10053000EF93FF93E0915902F0915A028081E0918C
:100540005F02F091600282FD12C090818091620290
:100550008F5F8F7320916302821751F0E0916202E6
:10056000F0E0E75BFD4F958F8093620201C08081D0
:10057000FF91EF919F918F912F910F900BBE0F9054
:100580000FBE0F901F9018951F920F920FB60F92EB
:1005900011242F933F938F939F93AF93BF93809199
:1005A0003D0290913E02A0913F02B09140023091F5
:1005B0003C0223E0230F2D3720F40196A11DB11D2D
:1005C00005C026E8230F0296A11DB11D20933C0211
:1005D00080933D0290933E02A0933F02B09340026D
:1005E0008091380290913902A0913A02B0913B0279
:1005F0000196A11DB11D8093380290933902A093FA
:100600003A02B0933B02BF91AF919F918F913F917E
:100610002F910F900FBE0F901F901895E9E4F2E014
:100620001382128288EE93E0A0E0B0E08483958389
:10063000A683B78384E092E09183808385EC90E089
:100640009587848784EC90E09787868780EC90E09C
:10065000918B808B81EC90E0938B828B82EC90E08D
:10066000958B848B86EC90E0978B868B118E128E07
:10067000138E148EE6EEF2E0168217821086118633
:10068000128613861486158616861786108A118A96
:10069000128A138A148A158A0895789484B5826020
:1006A00084BD84B5816084BD85B5826085BD85B516
:1006B000816085BD80916E00816080936E00109294
:1006C000810080918100826080938100809181000F
:1006D00081608093810080918000816080938000A0
:1006E0008091B10084608093B1008091B0008160FE
:1006F0008093B000809191008260809391008091FE
:10070000910081608093910080919000816080933E
:1007100090008091A10082608093A1008091A1004F
:1007200081608093A1008091A00081608093A000EF
:10073000809121018260809321018091210181605B
:10074000809321018091200181608093200180911C
:100750007A00846080937A0080917A00826080932E
:100760007A0080917A00816080937A0080917A008B
:10077000806880937A001092C10010922A03109230
:100780002B0310922C0310922D031092E80210926A
:10079000E9021092EA021092EB0268EB7BE080E043
:1007A00090E011DE89E492E090932903809328037E
:1007B000E0915902F0915A0282E08083E091550263
:1007C000F09156021082E0915702F091580280E1B8
:1007D000808310926102E0915D02F0915E0286E0FA
:1007E0008083E0915B02F0915C0280818061808374
:1007F000E0915B02F0915C02808188608083E091EF
:100800005B02F0915C02808180688083E0915B02F2
:10081000F0915C0280818F7D8083C9DD6093E80266
:100820007093E9028093EA029093EB0262E172E036
:100830008091280390912903ECDD6AE070E080E06C
:1008400090E0C1DD81E08093FC0284EF882E992442
:100850009394A12CB12CABDD672B682B692B39F459
:10086000A6DD623071058105910508F4F8C09FDDB1
:10087000609345027093460280934702909348022A
:10088000C0904102D0904202E0904302F0904402B6
:100890006C157D058E059F0540F4609341027093B1
:1008A00042028093430290934402C0904102D09050
:1008B0004202E0904302F09044029B01AC012C19EB
:1008C0003D094E095F0969017A013AEFC316D10467
:1008D000E104F10408F4C3C0609341027093420242
:1008E00080934302909344028092F4029092F50226
:1008F000A092F602B092F7021092F8021092F9025A
:100900001092FA021092FB028091EC029091ED029B
:10091000A091EE02B091EF028093F0029093F10269
:10092000A093F202B093F30242DD6093EC02709365
:10093000ED028093EE029093EF0239DD6093E802BE
:100940007093E9028093EA029093EB0230DD6B0131
:100950007C0164E272E0809128039091290359DDC3
:100960002AE041E050E060E070E08091280390913F
:10097000290364DD6BE272E08091280390912903E2
:1009800048DD2AE0B701A601809128039091290350
:1009900055DD6DE272E0809128039091290339DDE5
:1009A0008091EC029091ED02A091EE02B091EF02E5
:1009B000B701A601481B590B6A0B7B0B2AE08091FB
:1009C0002803909129033ADD6DE272E080912803BB
:1009D000909129031EDD4091EC025091ED0260914F
:1009E000EE027091EF028091F0029091F102A091DD
:1009F000F202B091F302481B590B6A0B7B0B2AE001
:100A0000809128039091290319DD6FE272E08091B3
:100A1000280390912903FDDCCADCAB01BC012AE06C
:100A2000809128039091290309DDE0902803F0903C
:100A3000290361E372E0C701ECDC61E272E0C70107
:100A4000E8DC62E070E080E090E0BDDCB0DC609368
:100A5000EC027093ED028093EE029093EF026FDC54
:100A6000FACEA1E21A2EAA1BBB1BFD010DC0AA1FC4
:100A7000BB1FEE1FFF1FA217B307E407F50720F007
:100A8000A21BB30BE40BF50B661F771F881F991F82
:100A90001A9469F760957095809590959B01AC01CB
:100AA000BD01CF010895EE0FFF1F881F8BBF079078
:100AB000F691E02D199481E090E0F89400C0F8944C
:020AC000FFCF66
:100AC200000000003801A200D1007E010201E00016
:100AD200F400564D4450565F317C315F564D4450C0
:100AE200560D0A00564D4450455F003A323A007C9A
:080AF200005F564D4450450021
:00000001FF
